:020000040800F2
:1000000000000220A51D0008B51C0008B91C00084E
:10001000BD1C0008C11C0008C51C00080000000031
:10002000000000000000000000000000C91C0008E3
:10003000CD1C000800000000D11C0008D51C0008E1
:10004000F51D0008F51D0008F51D0008F51D000848
:10005000F51D0008F51D0008D91C0008F51D000855
:10006000F51D0008F51D0008F51D0008F51D000828
:10007000F51D0008F51D0008F51D0008F51D000818
:10008000F51D0008F51D0008F51D0008F51D000808
:10009000E11C0008F51D0008F51D0008F51D00080D
:1000A000F51D0008F51D0008F51D0008F51D0008E8
:1000B000F51D0008F51D0008F51D0008F51D0008D8
:1000C000F51D0008F51D0008F51D0008F51D0008C8
:1000D000F51D0008F51D0008F51D0008F51D0008B8
:1000E000F51D0008F51D0008F51D0008F51D0008A8
:1000F000F51D0008F51D0008F51D0008F51D000898
:10010000F51D0008F51D0008F51D0008F51D000887
:10011000F51D0008F51D0008F51D0008F51D000877
:10012000F51D0008F51D0008F51D0008F51D000867
:10013000F51D0008F51D0008F51D0008F51D000857
:10014000F51D0008F51D0008F51D0008F51D000847
:10015000F51D0008F51D0008F51D0008F51D000837
:10016000F51D0008F51D0008F51D0008F51D000827
:10017000F51D0008F51D0008F51D0008F51D000817
:10018000F51D0008F51D0008F51D0008F51D000807
:10019000F51D000800000000F51D0008F51D000811
:1001A000F51D0008F51D0008F51D0008F51D0008E7
:1001B000F51D0008F51D0008F51D0008F51D0008D7
:1001C000F51D0008F51D0008F51D0008F51D0008C7
:0801D000F51D0008F51D0008F3
:1001E00010B5054C237833B9044B13B10448AFF371
:1001F00000800123237010BDF801002000000000E2
:100200005470000808B5034B1BB103490348AFF312
:10021000008008BD00000000FC01002054700008B0
:1002200010F8012B11F8013B012A28BF9A42F7D0A0
:10023000D01A7047034613F8012B002AFBD1181A75
:1002400001387047000000000000000000000000BE
:1002500001F0FF01102A2BDB10F0070F08D010F877
:10026000013B013A8B422DD010F0070F42B3F6D17B
:10027000F0B441EA012141EA014122F007047FF094
:1002800000070023F0E80256083C85EA010586EAEB
:10029000010685FA47F5A3FA87F586FA47F6A5FA27
:1002A00087F68EB9EED1F0BC01F0FF0102F0070233
:1002B00032B110F8013B013A83EA010313B1F8D1DE
:1002C0000020704701387047002D06BF35460338BF
:1002D000073815F0010F07D1013015F4807F02BFF8
:1002E000013015F4C03F0130F0BC0138704700BF49
:1002F00053B94AB9002908BF00281CBF4FF0FF318D
:100300004FF0FF3000F06AB9ADF1080C6DE904CE92
:1003100000F006F8DDF804E0DDE9022304B07047E0
:100320002DE9F047089D0C46002B4ED194468C4594
:100330008646B2FA82F262D94AB1C2F120039140F4
:1003400020FA03F30CFA02FC194300FA02FE4FEA0A
:100350001C471FFA8CF6B1FBF7F44FEA1E4307FB6C
:10036000141143EA014304FB06F199420AD91CEB3C
:10037000030304F1FF3080F01281994240F20F81B3
:10038000023C6344591A1FFA8EF3B1FBF7F007FBE6
:10039000101143EA014300FB06F69E420AD91CEB0A
:1003A000030300F1FF3180F0FC809E4240F2F980AF
:1003B000634402389B1B40EA044000211DB1D34036
:1003C0000022C5E90032BDE8F0878B4205D90DB1A6
:1003D000C5E9000100210846F5E7B3FA83F10029D9
:1003E00046D1A34202D39042C0F0F080861A64EB5B
:1003F00003030120002DE6D0C5E90063E3E7002AEE
:1004000040F09080A1EB0C044FEA1C481FFA8CF7D7
:100410000121B4FBF8F64FEA1E4308FB164443EAF9
:10042000044307FB06F0984208D91CEB030306F1CE
:10043000FF3402D2984200F2CD8026461C1A1FFAE1
:100440008EF3B4FBF8F008FB104443EA044300FBCE
:1004500007F79F4208D91CEB030300F1FF3402D2D7
:100460009F4200F2B0802046DB1B40EA0640A5E731
:10047000C1F120068B4022FA06F71F4320FA06FC42
:1004800004FA01F343EA0C03F44000FA01F8380CD3
:100490004FEA1349B4FBF0FE1FFA87FC00FB1E4431
:1004A00049EA04440EFB0CF9A14502FA01F20AD90B
:1004B0003C190EF1FF3A80F08480A14540F2818022
:1004C000AEF1020E3C44A4EB09041FFA83F9B4FB1D
:1004D000F0F300FB134449EA044403FB0CFCA4457D
:1004E00007D93C1903F1FF3067D2A44565D9023B17
:1004F0003C4443EA0E40A0FB0293A4EB0C049C4254
:10050000CE469C4651D34ED055B1B8EB0E0364EBAA
:100510000C0404FA06F6CB401E43CC40C5E9006447
:10052000002150E7C2F1200320FA03F10CFA02FC8B
:1005300024FA03F394400C434FEA1C4800FA02FEED
:100540001FFA8CF7B3FBF8F008FB1031230C43EAD9
:10055000014300FB07F1994208D91CEB030300F1AA
:10056000FF362CD299422AD9023863445B1AA4B2CE
:10057000B3FBF8F108FB113344EA034401FB07F332
:10058000A34208D91CEB040401F1FF3613D2A342A5
:1005900011D902396444E41A41EA004139E70446BA
:1005A000F0E6084606E7C845AED2B9EB020E63EBAB
:1005B000070C0138A8E73146EDE7034699E73046D6
:1005C000D4E7D6467FE7634402384DE70646234624
:1005D00008460FE7023E634430E700BF704700BFA4
:1005E000F8B5374E0546346801F0D2FE202786461E
:1005F0004FF0100C00234FF090418F6100BF00BFFF
:1006000000BF00BF8F6200BF00BF00BF00BF0A690C
:100610005B009BB2C2F38012BCF1010C43EA0203FF
:10062000EBD18F6100BF00BF00BF00BF8F6200BF72
:1006300000BF00BF00BF234A022088611168224822
:10064000224A4768A2FB0121890C4268D21B9142D1
:10065000FBD84FF09042022191621D49406808602A
:10066000106910F0010003D11A490A6801320A60CA
:10067000D5B11949194D0A68013401320A60346054
:100680002A68174901320968C2F3090291420FD062
:1006900029682A6001EB4101124A42F8214002EB2D
:1006A0008102C2F804E013810F4B01225A61F8BDA8
:1006B0000E4A1368013313600B4B01225A61F8BDD7
:1006C000200200207C000020001000E083DE1B439D
:1006D0001C020020280200203002002038020020E6
:1006E000340200203C0200200004014024020020CB
:1006F00030B4EFF3108172B60F4D104C1048114A10
:1007000000232B60236003600F4C13600F4A1048D6
:10071000236013600F4A03600F4B506818600F4C42
:10072000526822600E480F4A01230370536181F31F
:10073000108830BC704700BF38020020340200200F
:10074000300200202C020020280200202402002079
:1007500020020020001000E01C02002018020020EF
:10076000140200200004014008B5062001F084FEB8
:10077000002220214FF0904002F01EF94FF09040EF
:100780000022022102F018F90B490C4BD1F8FC2091
:10079000002042F08072C1F8FC2058601A6842F0D4
:1007A00001021A60FFF7A4FF054B01225A610620DF
:1007B000BDE8084001F052BE00ED00E0001000E08E
:1007C000000401404FF0904310B51C6914F001047F
:1007D00000D010BD0120FFF703FF084B084A09486D
:1007E0001B6809490470A2FB03239B0C4A68074954
:1007F00003EB430302EB43030B6010BD7C000020BE
:1008000083DE1B4314020020001000E018020020C9
:100810004FF090402DE9F84F0269264CD20723682B
:100820001FD4254D254A264E69681268A6FB03731E
:100830009B0C8A1A03EB4303B2EB430F0FD3DFF891
:100840009080D8F80030C91A002908DBEFF310892E
:1008500072B6076917F0010708D089F31088BDE860
:10086000F88F184B01221A70BDE8F88F164B174A03
:10087000DFF850A04FF0010BC3F814B013685B44CD
:1008800013609AF80000FFF7ABFE8AF8007058B9C1
:1008900023686A68A6FB03639B0C4FF47A7101FB23
:1008A0000323C8F80030D8E78AF800B06B68C8F8AE
:1008B0000030D2E77C000020001000E01C02002085
:1008C00083DE1B4314020020000401402C020020A0
:1008D000180200200346E0B1EFF3108C72B60E4808
:1008E0000E4A01681268914211D001680C4A01EB6E
:1008F000410102EB810201680131C1F3090101608C
:1009000007CA83E807008CF31088012070478CF336
:1009100010880020704700BF3402002038020020F9
:100920003C0200204FF090431869C04300F00100E2
:10093000704700BF014B1868704700BF30020020AD
:10094000014B1868704700BF2C020020014B18684B
:10095000704700BF28020020014B1868704700BF95
:1009600024020020034A044B10681B68C01AC0F31D
:100970000900704738020020340200200000000007
:1009800038B54FF48044224600211348134D05F03A
:10099000B4FA224600211248124C05F0AEFA124A6F
:1009A0001249134800239FED0A7B1380114A0B6004
:1009B00011492B6080ED007B23804FF0FF301360E6
:1009C000BDE838400860FFF793BE00BFAFF300807A
:1009D000000000000000000000F90020F4B8002032
:1009E00000B90020ECB8002044B60020F0B8002088
:1009F000F8B8002038B6002000000020F8B5164DE9
:100A0000164B2C781B78013404F03F04A3421CD011
:100A10000646FFF70FFC40F2FF13984228BF184626
:100A20000746314628780E4E3A4606EB402005F040
:100A30003CFB2B782A782C7006EB43260023F355D9
:100A4000084B012023F81270F8BD074A13680133E0
:100A500000201360F8BD00BFB4350020B33500207E
:100A600038360020B8350020A4350020C8B130B594
:100A7000037883B004468BB12D2B0FD000230D4695
:100A80000A2201A9019305F0F5F8019BA34205D0C4
:100A90001B781BB92860012003B030BD002003B0D3
:100AA00030BD0020704700BF2DE9F04F5E4D2C682F
:100AB000A5B00CB35D4BD3E90021930098184FEA21
:100AC000810343EA927341EB0303DB0043EA507373
:100AD000C000801A63EB01031B0143EA107300019D
:100AE000801841EB030189002204230C41EA907134
:100AF0008000FFF7FDFB044601F04AFC2B68CDE9BE
:100B00001B03FFF717FF0546FFF71AFF0646FFF71F
:100B10001DFF0746FFF706FF454A464B00280CBF5E
:100B200092469A46FFF718FF1D90FFF71BFF424BB6
:100B300042491A88424B91F800B0424986464FF02C
:100B4000000C41F28830E0FB023C5B0C43EACC3CF9
:100B50003D4B3E4A1B681E933D4B09781B681F9313
:100B60003C4B1B6820933C4B18683C4B1B882193E3
:100B70003B4B1B6822933B4BB3F800803A4BB3F8D6
:100B800000903A4B1B682393394BBBF1000F18BF01
:100B90001346002946D0374ADFF800B1012908BFC3
:100BA0005A46CDE91332239B1E9A1C990191CDE937
:100BB0001193229B0F93CDE90B04219B1D981B9948
:100BC0002D4C0295CDE90DC3CDE907E2CDE905A095
:100BD000209B0A93CDE903671F9B00910993CDF8F1
:100BE00040802468254D1594B4F5805F244C254B36
:100BF000254A264808BF2C4618944FF4FA6540F65B
:100C0000C414CDE91645224D224C08BF2C464FF4A2
:100C10000071199405F0FAF81C4825B0BDE8F04FB2
:100C2000FFF7ECBE1C4ABCE7F4B80020F8B800207F
:100C3000707000086C700008ECB80020E9B8002063
:100C4000C4090100E8B80020F0B80020787000085E
:100C5000A4350020A835002038B60020140000205C
:100C6000100000200C000020EAB80020080000203E
:100C70007C70000880700008040000208C70000860
:100C8000A8700008C4700008D47000083C3200202E
:100C90009C700008B4700008847000088870000818
:100CA0002DE9F04F584EB6F8008085B0B8F1000F2E
:100CB0007ED0564856494FEA480500EB480E044698
:100CC000034631F8022B1A70120A5A700233734528
:100CD000F7D1504B1B684FF6FF7241F2210C10F810
:100CE000011B082782EA012211B25200002992B2A8
:100CF000B8BF82EA0C02013FF6D17045EFD1DFF8B0
:100D000020B1CDE900824FF40071434A584605F006
:100D10007DF83B46C0F5FE79404F039009F101098B
:100D20000BEB000C19464FF03D0A2FE014F802E0DF
:100D300002284FEA0E2E01F1020262D0A25C0331BA
:100D4000043342EA0E02994542EA084230D94FEA9A
:100D5000924E012817F80EE08CF800E0C2F3053E31
:100D600017F80EE08CF801E025D0C2F3851E0228AA
:100D700017F80EE08CF802E01FD002F03F02A94203
:100D8000BA5C8CF803200CF1040C1DD2681A0128FF
:100D900014F8018001F10102C8D14FF0000E114694
:100DA0000433724642EA0E02994542EA0842CED81E
:100DB00005B0BDE8F08F8CF802A03D22A9428CF866
:100DC00003200CF1040CE1D3DDF80C80984408F109
:100DD0000203B3F5007FEBD240F60D222BF808207A
:100DE0000F4800220BF80320FFF708FE20B90D4A38
:100DF000338811680B4413600023338005B0BDE8CD
:100E0000F08F114600229BE744B6002048B6002030
:100E100098B7002040B6002068720008607A000889
:100E20003C32002038B600202DE9F0478EB00BA8E8
:100E3000FFF750FD00B3BDF834404FF6FF739C42FE
:100E40004ED04F4B1B68B3F5805F41D04D4A4E48A2
:100E50004E4DD2E900311B191360036803F1010301
:100E600003602B8841F10001A342494B51601B787C
:100E700038BF2C801BB901200EB0BDE8F087454B70
:100E80000B9D1B68B5FBF3F203FB1252002AF2D153
:100E9000414B197800292DD1404B1B78002B55D0A0
:100EA0003F4E404F3388002B5DD13D6001F070FA1A
:100EB0003D4A3388BDF8344010605A1C92B23B4919
:100EC0003280A72A21F81340D5D9FFF7E9FED2E7EF
:100ED000374A210952F82130013342F82130B5E771
:100EE000344A136801331360254B1B68B3F5805FE8
:100EF000ACD1EDE7304E0C9F41F28833E3FB046246
:100F00002E4BB3F800802E4BD3F800902D4B760C6F
:100F10000129B3F800A046EAC2361CD0FFF71CFD39
:100F2000CDE90489CDE906A0274A2848CDE9026425
:100F3000CDE90054264C246808943B464FF40071D8
:100F400004F064FF2148FFF759FD94E7214A136834
:100F5000013313608FE7FFF7FFFCCDE90489CDE98A
:100F600006A01D4AE1E73A681A449542A5D0FFF76A
:100F700097FE338813B1BDF834409EE70B9D94E78C
:100F800004000020F8B80020F4B80020ECB80020DD
:100F9000E9B8002008000020E8B80020B1350020A2
:100FA00044B6002040B600203CB6002098B7002090
:100FB00000F90020F0B80020C4090100140000204E
:100FC000100000200C000020A47200083C32002019
:100FD000A435002038B600207C72000838B5194CC2
:100FE000194D2060FFF7CCFC2068002101F086FA43
:100FF0002988164B1648C82928BFC821322938BF6E
:10100000322142F2747201FB02F202F5FA72A3FB82
:1010100002329209C2EB0233298003F272630D4956
:1010200002809B080022A1FB03135B092068114684
:1010300001F0AEFA0848FFF7E1FCBDE83840074888
:10104000FFF7DCBC003901200C000020D34D6210FA
:10105000EAB800209F00EE090C73000888730008AE
:101060002DE9F04F87B0FFF7D3FBA04B1B8823B1CE
:10107000A72B40F22581FFF713FE4FF4007401E027
:10108000013C03D0FFF7D0FE0028F9D1984C994AD3
:10109000238812889BB292B29A426AD0964BDFF8AC
:1010A000A892964DDFF8A482DFF858B202930EE0C2
:1010B0000A2B18D05E2A59D80BF8023001322A6068
:1010C0008C4B22881B8892B29BB29A4255D02388BF
:1010D0002A689BB219F8031023880133DBB20D296B
:1010E0002380CBB2E4D1002AEAD04FF0000A844931
:1010F00084480BF802A004F009FF814906465046D7
:1011000004F004FF82468EB37F493046FFF788F82B
:10111000002800F04C817D493046FFF781F8002817
:1011200000F07A817A493046FFF77AF8002840F0DB
:101130009780BAF1000F00F0A081504605A9FFF793
:1011400095FC80B1059EB6F5805F00F03681B6F55E
:10115000005F00F03281B6F5804F00F02E81B6F5C9
:10116000803F00F02A816B48FFF748FC00232B608A
:10117000A6E7614BDFF8D48102934FF4007501E0DC
:10118000013D03D0FFF750FE0028F9D1574B1B88D3
:1011900023B1A72B40F29F80FFF782FDD8F800C053
:1011A000BCF1000F37DB5C4B5C4A1B7812780133D3
:1011B00003F03F0393422ED0DFF894A1DFF894B1FF
:1011C000DFF89491002513E05BF82C70009704F091
:1011D0001DFE002816DD864214D9D8F800300544DB
:1011E00003F1010CC5F500731F2BC8F800C009D925
:1011F000C5F50076BCF5805F63460AEB05004A46FC
:101200003146E1DB002D40F0C181D8F80030B3F564
:10121000805F80F28081424A1378CBB13E4B3F49D8
:101220001B78DBB20B703F4900230B702F490B80FA
:101230003049098889B221801370029A2F491278A7
:101240000B604FF0FF30C8F80000002A40F0E98042
:10125000029B1B78002B40F0818007B0BDE8F08F27
:1012600031493046FEF7DCFF002840F0E080BAF15B
:10127000000F00F002811D4B2C4918805046FEF7EC
:10128000CFFF002800F04F8129495046FEF7C8FFE4
:10129000002800F0488127495046FEF7C1FF00288A
:1012A00000F0B58224495046FEF7BAFF002840F00E
:1012B000AA82224B224802221A70FFF79FFB55E7B1
:1012C00001F066F81F4B1B68C01A01287FF6D5AEE7
:1012D000FFF7E6FCD1E601F05BF81A4B1B68C01A79
:1012E00001287FF65BAFFFF7DBFC57E744B6002031
:1012F000A0340020A2340020B13500203C3400206E
:101300007C7500084034002080750008887500084E
:10131000907500089C750008B4350020B335002096
:10132000B0350020B2350020D47500088470000864
:10133000DC7500088870000880700008E8B800209C
:101340008C7600083CB60020A43400200000002069
:101350003C32002000B900200C7A000800F0D2FDD9
:1013600000283FF47AAFB94C2378002B40F012816B
:101370002378002B7FF471AFB54BB64A19781278F9
:1013800091423FF46AAF1878B34A1978B34B32F8F8
:10139000111003EB402000F09FFD00287FF45DAFAB
:1013A0000123237000F0F4FFAD4B186055E7AD4802
:1013B000FFF724FB00232B6082E6029B1B78002BA7
:1013C00040F0D781A84BDFF888C2A048DFF884A29C
:1013D0001E6000238AF80030DFF8D4E28CF8003079
:1013E0000370A248A24903808EF800304FF0FF330B
:1013F000C8F8003001239F4A0B60B6F5805318BF30
:1014000001231370FFF7BCFA9B489C4BB6F5805F35
:1014100008BF1846FFF7F2FAFFF746FB00232B60E0
:101420004EE69748FFF7EAFAFFF73EFB10E79549CB
:101430003046FEF7F5FE002840F0BE80BAF1000FFE
:101440001BD09AF800306F2B40F0D7809AF801300B
:101450006E2B40F0D2809AF80220002A40F0CD8016
:10146000814B1B68B3F5805F00F0E481864801235F
:10147000804A1370FFF7C2FA78E684493046FEF7D7
:10148000CFFE002800F0328181493046FEF7C8FEC9
:101490000390002851D1BAF1000F00F02E81504680
:1014A00005A9FFF7E3FA002800F04281DDF814C037
:1014B000ACF13203962B00F23B8142F2747101FBD6
:1014C0000CF1744B7448039ADFF81CA2734E01F5BB
:1014D000FA71A3FB01318909C1EB013303F2726395
:1014E0009B08A0FB03036E48AAF800105B09114695
:1014F0000068A6F800C001F04BF8BAF8003000937D
:101500003388684A68484FF4007104F07FFC6648ED
:10151000FFF774FA2AE66548FFF770FA4FF0FF33D9
:10152000C8F8003077E6624A514B624800211170DA
:1015300001221A60FFF762FA18E65F493046FEF7AB
:101540006FFE002863D1BAF1000F00F0DC805B4928
:101550005046FEF765FE002800F02C8158495046A1
:10156000FEF75EFE30B157495046FEF759FE00289F
:1015700040F08B816423544A1380544B4FF47A72A9
:101580001A60FFF7FDF9FFF78FFAEFE54648FFF71E
:1015900035FA40E600F0FCFE314B1B68C31AB3F588
:1015A0007A7FFFF4E5AE00F0BDFC494A13680021E4
:1015B000013321701360DBE634493046FEF730FE1C
:1015C00000287FF461AFBAF1000F00F08F80504621
:1015D00005A9FFF74BFA60B1059B3E4A591E91429F
:1015E00007D8334A1278002A40F02A81012B00F0F4
:1015F00027813948FFF702FAB8E538495046FEF727
:101600000FFE0346002840F01181354830E7354988
:101610003046FEF705FE002840F08E80BAF1000F3C
:1016200076D0504605A9FFF721FA002800F0F68091
:10163000059BA3F16402B2F5487F00F2EF80224AD5
:101640001380FFF79DF9FFF72FFA8FE5B2350020E1
:10165000B3350020B4350020B835002038360020DE
:10166000AC350020887300080400002044B6002038
:1016700008000020E9B800201C750008D874000894
:101680002C7A0008D87600085C750008647700089A
:10169000D4770008D34D62109F00EE090C000020A3
:1016A00000390120E07700083C320020187A000859
:1016B000E8B80020E47500086C7800087478000829
:1016C000807800088C7800081400002010000020AA
:1016D000A83500203F420F00887700087C70000882
:1016E0006C750008C8780008EAB8002076493046D2
:1016F000FEF796FD00287FF420AF74493046FEF7D0
:101700008FFD002883D172493046FEF789FD98B9D4
:1017100070493046FEF784FD002832D16E493046CC
:10172000FEF77EFD002848D16C48FFF767F91DE5FC
:101730006B48FFF763F919E566493046FEF770FD1F
:10174000F8B9BAF1000FE9D0504605A9FFF78EF9B4
:10175000002867D0059B5A1E632A63D8614A4FF45C
:101760007A7101FB03F31360FFF70AF9FFF79CF9A5
:10177000FCE400F0C7FB00283FF424AE00F0D2FBED
:1017800020E655493046FEF74BFDB0B9BAF1000FDF
:10179000CAD055495046FEF743FD00285FD0534953
:1017A0005046FEF73DFD064600284FD05048FFF753
:1017B00025F9DBE44FF4FA73DDE64E493046FEF7D7
:1017C0002FFD0028B0D1BAF1000FADD046495046E8
:1017D000FEF726FD0028A7D1029B1B78002B58D1CD
:1017E00045484649464A002303700B701370454A2A
:1017F00013804FF0FF33C8F80030FFF7C1F84248BC
:10180000FFF7FCF8B2E44148FFF7F8F8AEE4404BCC
:10181000404801221A70FFF7F1F8A7E43E48FFF7AD
:10182000EDF8A3E43D48FFF7E9F89FE43C48FFF7F3
:10183000E5F89BE43B4B3C481A70FFF7DFF895E472
:101840003A4A3B481360FFF7D9F88FE4394B1B68DD
:10185000B3F5805F2BD03848FFF7D0F886E4029BC1
:101860001B78EBB924482549254A002303700B70E7
:101870001370244A13804FF0FF33C8F80030FFF78D
:101880007FF82E48FFF7BAF870E42D48FFF7B6F856
:101890006CE400F037FB0028A2D000F043FB9FE788
:1018A00000F030FB0028DDD000F03CFBDAE72549F2
:1018B00025484FF4804204F0F8FB2448C8F8006043
:1018C000FFF79CF852E400BFD47700086C7800085A
:1018D000C8780008F878000828790008E47900083A
:1018E0002078000810000020307900085C7900089A
:1018F000A8790008C4790008B4350020B335002069
:10190000B235002044B60020CC790008A476000847
:10191000E8B8002020760008CC780008007900089C
:1019200048770008E9B80020E076000808000020A9
:1019300070770008040000207479000838790008E6
:101940009878000800F9002000B9002064790008A8
:10195000D1B130B500EB010E0C4C0D490D4D0138E5
:101960000EF1FF3E08E00A8810F801CF92B27045F0
:1019700005F802C00B8006D00B8822880133DBB249
:1019800092B29A42EFD130BD704700BFA034002020
:10199000A2340020A4340020054A13783BB1054945
:1019A0000B780133002003F03F030B701070704779
:1019B000B2350020B335002010B4074A074C084B5D
:1019C000003818BF012000212070117001221A7008
:1019D0005DF8044B704700BFB2350020B1350020E0
:1019E000B035002030B595B03822002106A804F0AB
:1019F00084FA00234FF40070CDE90133CDE90333BD
:101A0000059301F0AFFF222206924FF4807140222D
:101A1000CDE909120122022304240C9206A84B22CC
:101A2000CDE90D33CDE90F42CDE91133139302F027
:101A300013F808B172B6FEE703460F2503222146CC
:101A400001A8CDE90152CDE90333059302F082FAF2
:101A500008B172B6FEE715B030BD00BF80B50024F6
:101A600090B000F079FCFFF7BDFFCDE90444CDE96B
:101A700006445B4B0894D96C41F02001D964D96CC1
:101A800001F0200100910099D96C41F00101D96465
:101A9000D96C01F0010101910199D96C41F0020169
:101AA000D964D96C01F0020102910299D96C41F01C
:101AB0000401D964DB6C03F0040322460393222162
:101AC0004FF090400325039B00F076FF0423454828
:101AD000069404A9CDE9043500F070FE0C2304A996
:101AE0004FF09040CDE904350126069400F066FEE3
:101AF0004FF4041304A94FF09040CDE9046302278A
:101B0000069400F05BFE04A94FF09040CDE9047606
:101B1000CDE9064700F052FE202304A94FF0904083
:101B200007950493CDE9056400F048FE402304A91D
:101B30004FF0904004934FF03008CDE9054400F099
:101B40003DFE2948059504A90694CDF8108000F0C3
:101B500035FE4FF4D06304A94FF09040049300F099
:101B60002DFE4FF440732048049304A900F026FE94
:101B70004FF460431D48049304A900F01FFE1C4D60
:101B800022460521062000F02DFC4246214604A8ED
:101B900004F0B3F9174B2B60284600F099FC08B10C
:101BA00072B6FEE7CDE90600CDE90800ADF81400F5
:101BB00002460B9004A9284604970A9600F006FDF9
:101BC00060B900F019F92846FFF708FA384600F026
:101BD000E5FBFEF7C9FDFFF743FAFCE772B6FEE747
:101BE00000100240001400480008004800040048AB
:101BF0000439012000080050012800D07047FEF78A
:101C0000E1BD00BF72B6FEE70B4B1A6E42F0010257
:101C10001A661A6E82B002F001020092009A9A6D62
:101C200042F080529A659B6D03F080530193019BB3
:101C300002B001F009BF00BF001002400000000028
:101C400000B51B4A016889B000239142CDE90233F7
:101C5000CDE90433069302D009B05DF804FB03F12B
:101C6000804303F504339FED107BDA6C42F480323D
:101C7000DA64DA6C02F480320092009ADA6C42F094
:101C80000102DA64DB6C03F00103019302A94FF057
:101C900090408DED027B019B00F090FD09B05DF856
:101CA00004FB00BFAFF30080100000000300000041
:101CB00000080050FEE700BFFEE700BFFEE700BFE0
:101CC000FEE700BFFEE700BF704700BF704700BFE0
:101CD000704700BF00F050BB012000F073BE00BF92
:101CE000014800F0DFBE00BF7042012001207047B4
:101CF00008B504F0ADF9162303604FF0FF3008BDBE
:101D000008B504F0A5F916230360FEE770B5161EAA
:101D100007DD0C468D19AFF3008004F8010BA542D6
:101D2000F9D1304670BD00BF70B5161E07DD0C46F8
:101D30008D1914F8010BAFF30080A542F9D130469C
:101D400070BD00BF4FF0FF30704700BF4FF400532D
:101D50004B600020704700BF012070470020704793
:101D60000C490D4A0B6810B50C4C121B2BB11844D2
:101D7000904207D80860184610BD094B0B60184404
:101D80009042F7D904F064F90C2303604FF0FF335D
:101D9000184610BD18390120000002200010000074
:101DA000A04601200D48854600F0A6FA0C480D49D2
:101DB0000D4A002302E0D458C4500433C4188C42A6
:101DC000F9D30A4A0A4C002301E013600432A2420C
:101DD000FBD304F043F9FFF741FEFEE700000220C9
:101DE00000000020F4010020047D0008F80100201C
:101DF000A0460120FEE7000008B518491848002257
:101E000003F08EFA70B91749154803F09DFA88B9A6
:101E10001549134803F036FAA0B9114803F0AAFA9D
:101E2000B8B908BDFFF7EEFE0E490D4803F08CFA75
:101E30000028EDD0FFF7E6FE0B49094803F022FA2F
:101E40000028EAD0FFF7DEFE054803F093FA0028E9
:101E5000E7D0BDE80840FFF7D5BE00BF6000002016
:101E60001C39012054010020180000200020704778
:101E700008B5FFF791FD002008BD00BF38B5074D3C
:101E800009680446FFF764FD2146284603F00EFA70
:101E9000284603F02DFA002038BD00BF1C39012070
:101EA00008B50020FFF788FD002008BD10B5074CDD
:101EB00007490022204603F0EDF90649204603F0C9
:101EC000F5F90120FFF778FD002010BD1C39012035
:101ED000EC3B0120EC3D012010B5094CD4F8BC329C
:101EE00013B1D3F814320BB1012010BD0A460146DC
:101EF000204603F0CFF92046BDE8104003F0E0B9DA
:101F00001C390120064B93F89C22032A01D00020A3
:101F10007047D3F8BC02003818BF0120704700BFDB
:101F20001C390120054810B5D0F8BC422CB18121E4
:101F300000F07CF90023C4F8143210BD1C390120D4
:101F4000122301480B8070474C00002004230148F5
:101F50000B8070474800002010B5044C04480A4626
:101F6000214603F0ADFD204610BD00BFEC3F01202F
:101F7000A47A000810B5044C04480A46214603F030
:101F80009FFD204610BD00BFEC3F0120C07A000835
:101F900010B5044C04480A46214603F091FD204642
:101FA00010BD00BFEC3F0120D87A000810B5044CEA
:101FB00004480A46214603F083FD204610BD00BFB9
:101FC000EC3F0120F07A00081B48D0F89035D0F89B
:101FD000982510B59B184FF01A040C8001D11748B2
:101FE00010BD164AD0F8940502F1100411464FF0C6
:101FF000000E4FEA137CB3F1204F34BF0CF1300CCC
:102000000CF1370C81F802C081F803E00231A142E3
:102010004FEA0313EDD10A4C0021030FB0F1204F1A
:1020200034BF303337339374D1740232A2424FEA53
:102030000010F2D1014810BD0070FF1F2C000020DD
:102040003400002010B5044696B05422002101A8A7
:1020500003F053FF114B22689A4201D016B010BD15
:102060004FF4005301A8019302F07EF898B90C4B8D
:10207000996D41F4000199659B6D03F40003002202
:10208000062100931420009B00F0ACF9142000F00E
:10209000E5F916B010BDFFF7B5FDE8E7005C0040BC
:1020A0000010024000F52671D0F8D80203F074B990
:1020B00001EB810300EBC303D0F8D802D3F864210D
:1020C00003F09AB901EB810300EBC303D0F8D80207
:1020D0005A6A03F0C5B900BFD0F8D80203F05EBA5F
:1020E00010B54379022B044601D0FFF78BFDD4F8DD
:1020F000D802012103F036FAD4F8D802BDE8104026
:1021000003F004BA10B50446D0F8D80203F02EFA52
:10211000637A23B1024A136943F00603136110BDC9
:1021200000ED00E010B5437A04462BB9D4F8D8028C
:10213000BDE8104003F026BA064A136923F00603EF
:102140001361FFF74FFCD4F8D802BDE8104003F04C
:1021500019BA00BF00ED00E01F4B10B50446C3F8EC
:10216000D8024FF402721D48186002219A80C4F808
:10217000C43200221846C3F80710DA7200F02EFCB1
:1021800030BB00221146D4F8C402182301F0B0FB82
:10219000D4F8C40258230022802101F0A9FBD4F80E
:1021A000C402C0230022812101F0A2FBD4F8C402A2
:1021B0004FF488730022012101F09AFBD4F8C40285
:1021C0004FF480730022822101F092FB002010BDA9
:1021D000FFF718FDD5E700BF70420120005C00400A
:1021E00008B5D0F8C40200F047FC18B102280CBFB3
:1021F0000120032008BD00BF944608B51A46D0F858
:10220000C402634601F030FA18B102280CBF012065
:10221000032008BD08B5D0F8C40201F061FA18B176
:1022200002280CBF0120032008BD00BF08B5D0F86C
:10223000C40201F041FB18B102280CBF01200320A9
:1022400008BD00BF08B5D0F8C40201F0BFFA18B14C
:1022500002280CBF0120032008BD00BF08B5D0F83C
:10226000C40201F0EDFA18B102280CBF01200320CE
:1022700008BD00BF0A06D0F8C43206D401EB8101C4
:1022800003EBC10393F85201704701F07F0101EBAA
:10229000810103EBC103987C704700BF08B5D0F8FB
:1022A000C40201F0CDF918B102280CBF01200320AF
:1022B00008BD00BF08B5D0F8C40201F069FA18B132
:1022C00002280CBF0120032008BD00BF08B5D0F8CC
:1022D000C40201F039FA18B102280CBF0120032012
:1022E00008BD00BFD0F8C40201F048BA00487047EA
:1022F00050400120704700BF034AD2F8883043F4B1
:102300007003C2F88830704700ED00E038B50F4B1D
:102310001B680BB9012038BD0D494FF47A72054690
:10232000B2FBF3F30868B0FBF3F000F0B7F8044633
:102330000028EFD10F2DEDD8024629464FF0FF308F
:1023400000F050F8034B20461D6038BD800000208F
:102350007C0000208400002010B5032000F030F83D
:102360000020FFF7D3FF10B10124204610BD044622
:10237000FFF74AFC204610BD034A04491368096868
:102380000B441360704700BF4C45012080000020C3
:10239000014B1868704700BF4C45012038B5044612
:1023A000FFF7F6FF631C054602D0044B1B681C4474
:1023B000FFF7EEFF401BA042FAD338BD800000209B
:1023C0000749CA6803024FF6FF0003F4E0630240C6
:1023D000134343F0BF6343F40033CB60704700BF47
:1023E00000ED00E01B4BDB68C3F3022300B5C3F133
:1023F000070EBEF1040F03F1040C28BF4FF0040ECA
:10240000BCF1060F1CD9A3F1030C4FF0FF3303FA04
:102410000CF322EA03024FF0FF3303FA0EF321EA32
:10242000030303FA0CF313431B010028DBB20ADB9E
:1024300000F1604000F5614080F800335DF804FB76
:1024400000229446E7E7044A00F00F0002441376A6
:102450005DF804FB00ED00E0FCEC00E0002807DB89
:10246000044A4109012300F01F00834042F8213053
:10247000704700BF00E100E000280CDB430906497B
:1024800000F01F0020330122824041F82320BFF3D7
:102490004F8FBFF36F8F704700E100E00138B0F15C
:1024A000807F01D30120704710B44FF0E023074C28
:1024B00058614FF0F00C84F823C000220721104629
:1024C0009A615DF8044B1961704700BF00ED00E0B0
:1024D00088B110B50379044603F0FF023BB1002335
:1024E00002210122217123612271184610BD42711F
:1024F000FFF7A6FBF3E70120704700BF00283FD09D
:102500004379012B02463DD0022330B403711E4BA8
:1025100004681B681D4825689B09A0FB030301F0A4
:10252000100C012082B09B0900FA0CF00133284303
:1025300020600193019B2BB1019B013B0193019B07
:10254000002BF9D179B9236803F03E03022B03D1A4
:10255000636843F00103636000200123137150712D
:1025600002B030BC70472168022301F4781103FAED
:102570000CF39942F0D1636843F002036360EBE728
:1025800001207047022070477C000020632D3E052B
:1025900010B483B00024019498B10068C46B01901A
:1025A00051B1019914310A440192019A002013603B
:1025B00003B05DF8044B7047019908310A44019259
:1025C000F3E7012003B05DF8044B7047002800F0EA
:1025D000CE802DE9F0410F46002900F0CA804379F2
:1025E0008968012B064600F0D3800123437104293A
:1025F0004FF00203144603717BD0036802F010040D
:10260000FA69012A08D1986B3A6A1F25A540A240B1
:1026100020EA050002439A63BD69DA6BD7F814809B
:102620000720012D00FA04F000F09E80022D00F03A
:10263000A380B8FA88FC4FEA5C1C3D7997F805E066
:10264000A5F10105B5FA85F5AEF1010E6D09BEFAE9
:102650008EFE2D024FEA5E1E45EA4E2545EA08052C
:102660000D434FF48071A140014322EA01084FF469
:102670000072A24028EA02083A68022A45EA0C05DC
:1026800028F440487BD048EA0208A54045EA0805FE
:10269000DD631A684FF48041A14022EA01021A600A
:1026A000D7E903121D6840F6FE70A04025EA000538
:1026B00001FA04F0284392011860C1F3830102F487
:1026C00070620A4340F60F701968C025A040A2400E
:1026D00005FA04F421EA04011960196E21EA0001E7
:1026E00000240A4301211A66204631717471BDE845
:1026F000F081FFF74DFE336805465A6B54B118E080
:10270000FFF746FE401B0128336802D95A6B1104BB
:1027100048D45A6B1204F3D47A6A1A640DE0FFF7B6
:1027200037FE401B0128336802D95A6B002A39DB77
:102730005A6B002AF3DB7A6A5A649A6CB96A04F01D
:10274000100440F2FF30A040A14022EA00020A43F8
:102750009A64DA6CF96AFF20A040A14022EA0002E4
:102760000A43DA64B9684BE74FF0000C65E70120D3
:1027700070470120BDE8F0814FF0010C5DE701F0EA
:10278000EDFC0C4B984205D9336848F400487CE7CF
:102790000220ACE7084A336890427FF676AF48F4EF
:1027A000804872E73369032243F008033361032052
:1027B00032719CE70068890900B4C4042DE9F04F28
:1027C0000C6885B0002C00F09080744F002389467F
:1027D000012202FA03F515EA040800F08180D9F815
:1027E000041001F0030E032603FA02F20EF1FF3A81
:1027F00006FA02FCBAF1010FD9F808606FEA0C0C76
:1028000076D9BEF1030F01D1012E05D0C5689640DF
:1028100005EA0C052E43C66005680EFA02F205EAC9
:102820000C052A4311F4403F026059D05C4D2A6EDA
:1028300042F001022A662A6E02F001020392039A14
:1028400023F0030202F1804202F5803203F0030616
:102850009568B6004FF00F0C0CFA06FCB0F1904FE3
:1028600025EA0C0E1CD04F4DA84200F082804E4D40
:10287000A84200F08580DFF834C1604572D0DFF8EF
:1028800030C1604500F08380DFF828C160450CBF8F
:102890004FF0050C4FF0060C0CFA06F64EEA060E49
:1028A000C2F808E0BA686FEA0805CE0254BF2A40B1
:1028B00048EA0202BA60FA688E0254BF2A4048EA27
:1028C0000202FA607A688E0354BF2A4048EA020284
:1028D0007A603A68C90354BF2A4048EA02023A6063
:1028E000013334FA03F27FF473AF05B0BDE8F08F23
:1028F0009640D0F808B00196D9F80C600BEA0C0BA2
:1029000006FA02FA4AEA0B0AC0F808A0D0F804A0B6
:10291000019E2AEA050AC1F300159D4045EA0A0511
:102920004560C56805EA0C052E43BEF1020FC6607E
:102930007FF472AFD9F810504FEAD30A03F00706BC
:1029400000EB8A0AB600B540DAF820B001950F25F1
:1029500005FA06F6019D2BEA060B45EA0B05CAF8B7
:10296000205059E74FF0030C0CFA06F64EEA060E1B
:1029700096E74FF0010C0CFA06F64EEA060E8FE7CA
:102980004FF0020C0CFA06F64EEA060E88E74FF0FE
:10299000040C0CFA06F64EEA060E81E7000401402C
:1029A000001002400004004800080048000C0048E5
:1029B00000100048001400480AB18161704781622C
:1029C000704700BF044A5169014200D1704708B501
:1029D0005061FFF711F908BD00040140002844D000
:1029E00070B590F89132064603F0FF02C3B303239B
:1029F000306886F8913201F04DFD3579FDB1002146
:102A00003346324601200C4611740131A942C2E915
:102A100008445074D47442F8284FF5D100210A4676
:102A200083F850110131A942C3E9582283F851219A
:102A300083F85321C3F8682103F12803F0D133460A
:102A400053F8040B93E8060001F02EFDB37A01223F
:102A500000219342317386F8912208D0002070BD86
:102A600080F89022FFF7EEFAC1E701207047304668
:102A700000F05CFF002070BD90F89032012B0ED06A
:102A800010B504460123006884F8903201F0F8FC88
:102A9000206802F04DFA002084F8900210BD022058
:102AA000704700BF2DE9F04F044683B0006802F084
:102AB0004BFA10F400452CD1430500F1D0814704B6
:102AC0001BD410F4005140F0E881C60400F1B0803E
:102AD000050500F16984010600F13A84820500F1E0
:102AE0008484C30512D52268B2F8443023F480737D
:102AF0001B041B0CA2F8443008E02268B2F84430F2
:102B000023F480431B041B0CA2F8443003B0BDE83F
:102B1000F08F2068B0F844301A04F7D5DFF81CBBFA
:102B200031E011F0100100F01081018811F400650E
:102B30008BB200F0DF80B0F8502094F8501140F2D2
:102B4000064310FA82F203EBC103D35AC3F309031D
:102B5000082BC4F86C3140F05C84B4F8562104F5BD
:102B6000267102F005FA2268118840F68F730B4037
:102B700043F0800320461380FFF794FA2068B0F8F2
:102B800044301A04C2D5B0F8443099B203F00F05AE
:102B900013F00803BAD1002DC3D00FFA85F830F82E
:102BA0002820170496B266D43106E8D530F82830CC
:102BB0009BB203EA0B0343F4004305EB850220F8C4
:102BC000283004EBC202AF00D37C012B00F01C8143
:102BD00008EB880804EBC80C117CDCF82830009363
:102BE00016F4807A4FEAC8090FFA81FE4FEAC1084D
:102BF00040F06581B0F8505010FA85F54544B5F8BD
:102C00000254C5F309059D4280F053815B1BCCF84B
:102C10002830536A2B445362DCF82C3009F1100140
:102C20002B442144CCF82C3001F054FF2068A6E757
:102C30002268B2F8403023F004031B041B0CA2F8F6
:102C40004030B2F8403023F008031B041B0CA2F8FC
:102C5000403094F8C832012B00F0D5832046FFF7AE
:102C600061FA2268B2F8443023F480531B041B0C31
:102C7000A2F844304AE730F8281040F68F720A4034
:102C800042F0800205EB850120F8282004EBC10109
:102C9000AF0091F85C21002A40F08180B0F85030FC
:102CA00000F2064212FA83F391F8502133F8329081
:102CB000C9F30909B9F1000F40F0AB814FF00009E9
:102CC0007B1904EBC303D3F86C214A44C3F86C218D
:102CD000D3F8682122B1D3F860214A4540F26081DF
:102CE0002F4404EBC707204697F85011FFF7E0F98F
:102CF000206859E71B047FF542AF028840F68F73C6
:102D0000134043F080030380B0F8502094F8501132
:102D100040F2064310FA82F203EBC103D35AC3F325
:102D20000903C4F86C31002B40F05D81038823F463
:102D3000804323F070031B041B0C83F4405343F4C3
:102D4000004343F08003038019E703889BB203EA42
:102D50000B0343F400430380B0F8503010FA83F2C1
:102D6000207C40F2024303EBC0032046D35A626A40
:102D7000C3F309031A44E3626262FFF7A3F9237BFA
:102D8000002B3FF453AFA36A2068002B7FF4F7AE0B
:102D9000227B42F08002A0F84C202373EFE691F8EA
:102DA00053C191F85021BCF1020F00F0B38112B26F
:102DB00030F822309BB223F4E04323F0700343F455
:102DC000004343F0C00320F8223091F850311AB28A
:102DD00030F8222012F4804FB0F8502000F0EF803D
:102DE00000F2024C1CFA82F232F83390C9F309095E
:102DF000B9F1000F3FF462AFB1F85821D1F8641176
:102E00004B4602F0B5F85BE76B1C03EB8303002134
:102E100044F83310137FCBB116F04006537C00F01A
:102E20006881002B40F04182127CB0F8503000F2F3
:102E3000024010FA83F303EBC2031A88C2F30902BB
:102E40001A801A8892B242F400421A803D4404EB80
:102E5000C5052046297CFFF735F920688FE62268F2
:102E6000B2F8443023F480631B041B0CA2F84430F6
:102E70002046FFF735F994F89032012B3FF446AE27
:102E80000123206884F890322573294602F04AF81D
:102E900084F8905203B0BDE8F08F2268B2F8443055
:102EA00023F400531B041B0CA2F8443003B0BDE80C
:102EB000F08FCCF828A02046FFF704F9B6E606F418
:102EC000804316F04006019300F0AB80B0F85060EC
:102ED000009B00F2024A1AFA86F636F83E90C9F3D1
:102EE00009099945C0F061810026CCF82860537C1F
:102EF000002B40F0ED82B0F850301AFA83F300F264
:102F0000064633F83E20C2F3090223F83E2033F888
:102F10003E2092B242F4004223F83E20B0F85030F6
:102F200016FA83F333F83E20C2F3090223F83E2059
:102F300033F83E2092B242F4004223F83E207B193F
:102F400004EBC303DB7C022B0FD130F82E3023F4CB
:102F5000E04323F040031B041B0C83F0200343F4E5
:102F6000004343F0800320F82E302046FFF7AAF8F4
:102F7000019B002B3FF45AAE7B1904EBC30320687E
:102F80001A7C30F8223023F4E04323F070031B0452
:102F90001B0C43F4404343F0800320F82230EEE55D
:102FA000D3F86421206828214A4401FB0541C3F875
:102FB000642101F5A87101F08DFD2068F4E500F2AF
:102FC000064C1CFA82F232F83390C9F30909B9F1C0
:102FD000000F3FF473AEB1F85A21D1F864114B469B
:102FE00001F0C6FF6CE6D4F8641100293FF4C7ADC8
:102FF000B4F8562101F0BCFFD4F86431D4F86C2148
:10300000134420462946C4F86431FFF751F820687C
:10301000B5E5B1F85621D1F864114B4601F0A8FF8F
:103020004EE6B0F85020009B00F2064A1AFA82F2EF
:1030300032F83E90C9F30909994500F2E780A3EB05
:103040000903CCF82830002B00F0E280019B6BB91B
:1030500030F82E3023F4E04323F070031B041B0CE4
:1030600043F4404343F0800320F82E307B1904EBF7
:10307000C30393F83420012A40F0B3805A6A02EB6C
:1030800009015962DCF82C604E44CCF82C601E6BB0
:103090001A6A9642C0F05B82B61A1E631FFA82F962
:1030A0007B1904EBC30393F811C0BCF1000F40F08F
:1030B0004382B0F850301AFA83F3984433F83E60F4
:1030C000C6F3090623F83E60002A40F0828233F8F6
:1030D0003E206FEA42426FEA524292B223F83E200B
:1030E0007A1904EBC2024B46528B01F031FF206883
:1030F00077E0002B00F0E780012B7FF4A7AEB0F85B
:103100005030127C00F2064010FA83F303EBC20346
:103110001E809BE616F4804A0FFA82FED1F868C141
:103120004FEAC20200F0D580B0F8509010FA89F949
:103130004A44B2F802A4CAF3090AE245D14600F2B1
:10314000C181ACEB0A03C1F868317BB930F82E209D
:1031500022F4804222F070021204120C82F4005316
:1031600043F4004343F0800320F82E3071060DD560
:1031700030F82E3023F4E04323F070031B041B0CC3
:1031800043F4004343F0C00320F82E30BAF1000F9F
:103190003FF496AD791904EBC1015346B1F85821BB
:1031A000D1F8641101F0E4FE8AE5A3EB0903CCF841
:1031B0002830019B6BB130F82E3023F4E04323F02C
:1031C00070031B041B0C43F4404343F0800320F8BE
:1031D0002E307B1904EBC30393F83420012A00F04E
:1031E00039813D4404EBC5052A7C30F8223023F4B4
:1031F000E04323F040031B041B0C83F0300343F433
:10320000004343F0800320F82230B8E4CCF8286073
:103210007B1904EBC3035B7C002B40F06B81B0F89F
:10322000502000F2024313FA82F232F83E30C3F328
:10323000090322F83E3032F83E306FEA43436FEA2A
:1032400053439BB222F83E30B0F850201AFA82F273
:1032500032F83E30C3F3090322F83E3032F83E30F4
:103260006FEA43436FEA53439BB222F83E307B1927
:1032700004EBC303DB7C022B0FD130F82E3023F498
:10328000E04323F040031B041B0C83F0200343F4B2
:10329000004343F0800320F82E302046FEF712FF53
:1032A000019B002B3FF468AEC0E4012B7FF4CEAD50
:1032B000B0F85030127C00F2024010FA83F303EBB6
:1032C000C2031980C2E5B0F85030127C00F206400B
:1032D000AFE5B0F8503010FA83F31344B3F8063476
:1032E000C3F309036345994600F2EF80ACEB030298
:1032F000C1F868217AB930F82E2022F4804222F0F9
:1033000070021204120C82F4005242F4004242F0A5
:10331000800220F82E2072060DD430F82E2022F4E0
:10332000E04222F070021204120C42F4004242F019
:10333000C00220F82E20002B3FF4C2AC791904EB18
:10334000C101B1F85A21D1F8641101F011FEB7E4BE
:103350002268B2F8443023F080031B041B0CA2F84F
:10336000443094F8C832002B3AD1B2F840309BB2C6
:1033700043F00403A2F84030B2F840309BB2012180
:1033800043F00803A2F8403084F8C812B2F8543071
:10339000C3F38D0303F03C032046C4F8CC3203B0E2
:1033A000BDE8F04F00F0DCBA2268B2F840309BB2C2
:1033B00043F00803A2F84030B2F8443023F400632D
:1033C0001B041B0CA2F84430B2F840309BB243F00F
:1033D00004032046A2F84030FEF794FEFFF796BBA8
:1033E0002046FEF78FFEFFF791BB2268B2F844300B
:1033F00023F400731B041B0C2046A2F84430FEF794
:103400006BFEFFF783BB84F8C812204600F0A8FAD1
:1034100024E4038823F4804323F070031B041B0C73
:1034200048F2800183F480530B430380038823F424
:10343000E04323F040031B041B0C83F010031943EB
:103440000180038840F68F72134043F080030380AD
:10345000FFF75CBB5A6A02EB09015962DCF82C6089
:103460004E44CCF82C601E6B1A6A96425FD3B61A93
:103470001E631FFA82F97B1904EBC30393F811C092
:10348000BCF1000F49D1B0F850301AFA83F39844D8
:1034900033F83E60C6F3090623F83E60002A72D175
:1034A00033F83E206FEA42426FEA524292B223F86A
:1034B0003E207A1904EBC2024B46128B01F048FD04
:1034C00020688EE6C1F8683140E6C1F868A112E7CD
:1034D000012B7FF434ADB0F850301AFA83F300F2C8
:1034E000064223F83E60B0F8503012FA83F323F816
:1034F0003E6024E5012B7FF4BAAEB0F8503000F204
:10350000024212FA83F3002223F83E20B0F8503032
:103510001AFA83F323F83E20A9E6BCF1010FC8D1C3
:10352000B0F850301AFA83F323F83E90C1E79EB901
:1035300083F834604A469EE7BCF1010F7FF4D0ADBA
:10354000B0F850301AFA83F323F83E90C8E54EBB2A
:1035500083F834604A46A3E593F811C0002283F84B
:1035600034201A631FFA86F9BCF1000FD5D1B0F8E8
:1035700050301AFA83F3324633F83E60C6F3090638
:1035800023F83E6098443E2A32D8B8F800305608F6
:10359000D20748BF01369BB243EA86239BB2A8F804
:1035A000003086E793F811C000221A6383F83420B4
:1035B0001FFA86F9BCF1000FBED1B0F850301AFAEC
:1035C00083F3324633F83E60C6F3090623F83E60C3
:1035D00098443E2A1FD8B8F800305608D20748BF92
:1035E00001369BB243EA86239BB2A8F8003077E508
:1035F000D306B8F800304FEA521608BF06F1FF367E
:103600009BB243EA86236FEA43436FEA53439BB27C
:10361000A8F800304DE7D306B8F800304FEA52164C
:1036200008BF06F1FF369BB243EA86236FEA4343A5
:103630006FEA53439BB2A8F8003051E50F8FFFFFAC
:1036400090F89022012A0CD010B50446012200689F
:1036500084F89022217301F065FC002084F8900228
:1036600010BD0220704700BF10B501F0070E0EEB31
:103670008E0C090604464FEACC0C22D40CF5A87136
:1036800001440EEB8E0004EBC0004FF0000C80F8FC
:1036900051C1022BCB70C2F30A0204BF00230B718D
:1036A00081F800E00A6194F89032012B15D00123D3
:1036B000206884F8903200F00FFF002084F8900218
:1036C00010BD0CF1100101440EEB8E0004EBC000A4
:1036D0004FF0010C80F811C0DBE7022010BD00BFE5
:1036E00001F0070301F0070210B503EB8303044662
:1036F000090602EB82004FEAC30304EBC00015D4B5
:1037000003F5A873E1184FF0000C80F851C10A705E
:1037100094F89032012B14D00123206884F8903261
:1037200001F0F2F8002084F8900210BD1033E11887
:103730004FF0010C80F811C00A7094F89032012B00
:10374000EAD1022010BD00BF10B501F0070E0EEB4C
:103750008E0C00EBCC0C2821002401FB0E01CCF8D0
:10376000642100688CF850E1CCE95A348CF851415E
:1037700001F5A87101F0AEF9204610BD01F0070176
:1037800001EB810100EBC100D0F86C01704700BF74
:1037900010B501F0070E0EEB8E0100EBC10C614677
:1037A000CCF82830CCF83030002401230068CCF865
:1037B000242010318CF83430CCF82C408CF81130A7
:1037C0008CF810E001F086F9204610BD027901F076
:1037D00007039A4232D30A0610B504461BD401EB04
:1037E0008102282000FB014104EBC20201F5A8710F
:1037F000002082F8510101228A700B7094F89032F7
:10380000934219D0206884F8902201F015FB002023
:1038100084F8900210BD03EB8302282101FB030111
:1038200000EBC20210310120507401228A700B702B
:1038300094F890329342E5D1022010BD01207047E8
:1038400038B5027901F00F039A4232D301F0070331
:1038500001F00702044603EB830302EB8200090632
:103860004FEAC30304EBC00016D403F5A873E118B4
:10387000002580F8515100258D700A7094F890321F
:10388000012B14D00123206884F8903201F0FCFA57
:1038900084F89052284638BD1033E118012545744C
:1038A00000258D700A7094F89032012BEAD1022025
:1038B00038BD012038BD00BF90F89032012B15D0E3
:1038C000012310B580F890320B060446006805D439
:1038D00000F000FE002084F8900210BD01F0070106
:1038E00000F0F6FD002084F8900210BD0220704721
:1038F00011F0800F0CD001F0070101EB810100EB0A
:10390000C100103099B262B9C180027300207047C3
:1039100001EB810100EBC10000F5A87099B2002A0B
:10392000F2D001228360027300207047024600201B
:10393000116810B482F8C802B1F8543001249BB267
:103940002343C2F8D042A1F85430B1F854305DF8A6
:10395000044B9BB243F00203A1F85430704700BF00
:10396000704700BF354A136860B903F4C063B3F50C
:10397000806FD2F880301BD023F48073C2F880307F
:1039800000207047B0F5007F06D023F4C06343F4F5
:10399000806313600020704703F4C063B3F5806F49
:1039A000D2F8803029D043F48073C2F88030F1E738
:1039B00023F48073C2F8803013682148214923F42E
:1039C000C06343F4007313600368322000FB03F309
:1039D0005069A1FB03139B0C400503F1010306D5BD
:1039E00000E023B15169490503F1FF33F9D4134BCA
:1039F0005B695B05CED50320704743F48073C2F842
:103A0000803013680E480F4923F4C06343F40073F9
:103A100013600368322000FB03F35069A1FB03131A
:103A20009B0C400503F10103E1D501E0002BDED042
:103A30005169490503F1FF33D9D5F7E7007000401C
:103A40007C00002083DE1B43024A936843F48043DA
:103A50009360704700700040002800F0BD812DE9A0
:103A6000F0410368D90782B0044612D5A6498A6896
:103A7000C96802F00C020C2A00F0D080082A40F03D
:103A8000D280A14A1268920303D56268002A00F02E
:103A900037819A0722D59C4A9368D26803F00C03B9
:103AA0000C2B00F0F880042B40F0FA80964B1B683A
:103AB0005B0503D5E368002B00F02281924A206960
:103AC0005368924923F0FE4343EA00635360086859
:103AD000FEF71CFC002840F0138123681A0719D553
:103AE0006369894D002B00F0C280D5F8943043F013
:103AF0000103C5F89430FEF74BFC064605E0FEF7DF
:103B000047FC801B022800F21781D5F894309B07F0
:103B1000F5D523685D0741D57B4B9A6DD00000F148
:103B20000F819A6D42F080529A659B6D03F080532D
:103B30000193019B0125764E3368D90540F12E8112
:103B4000A368012B00F0FE80052B00F084816E4EEF
:103B5000D6F8902022F00102C6F89020D6F89020E6
:103B600022F00402C6F89020002B40F0F280FEF70D
:103B70000FFC41F28838074605E0FEF709FCC01B40
:103B8000404500F2D980D6F890309907F5D425B198
:103B90005D4A936D23F08053936523689A0618D588
:103BA000A369594D002B00F0E580D5F8983043F01B
:103BB0000103C5F89830FEF7EBFB064605E0FEF77B
:103BC000E7FB801B022800F2B780D5F898309B07EE
:103BD000F5D5E369F3B14C4DAA6802F00C020C2A4A
:103BE00000F04781022B2B6823F080732B6000F0DC
:103BF000F580FEF7CDFB044605E0FEF7C9FB001B90
:103C0000022800F299802B689B01F6D4EA68414BA8
:103C10001340EB60002002B0BDE8F08101F0030129
:103C200003293FF42EAF6368B3F5803F55D0B3F559
:103C3000A02F00F0C480344D2A6822F480322A601C
:103C40002A6822F480222A60002B4BD1FEF7A0FBC9
:103C5000064604E0FEF79CFB801B64286CD82B68AA
:103C60009903F7D423689A077FF538AF13E7D5F89F
:103C7000943023F00103C5F89430FEF789FB064623
:103C800004E0FEF785FB801B022855D8D5F8943058
:103C90009F07F6D43DE702F00302022A3FF406AF85
:103CA000E368194D002B37D02B6843F480732B60E9
:103CB000FEF76EFB064604E0FEF76AFB801B022857
:103CC0003AD82B685F05F7D56B68226923F0FE436D
:103CD00043EA02636B60236800E70B4A136843F40E
:103CE00080331360FEF754FB074E054604E0FEF7F1
:103CF0004FFB401B64281FD833689F03F7D5B1E7FB
:103D0000012002B0BDE8F0810010024084000020D4
:103D100000700040FCFFEEFE2B6823F480732B60E4
:103D2000FEF736FB06462B6859057FF5D6AEFEF743
:103D30002FFB801B0228F6D9032002B0BDE8F081DA
:103D40000025F8E6654AD2F8903043F00103C2F846
:103D50009030FEF71DFB614F064641F2883804E0C3
:103D6000FEF716FB801B4045E6D8D7F890309B073E
:103D7000F6D50CE7D5F8983023F00103C5F8983054
:103D8000FEF706FB064604E0FEF702FB801B022856
:103D9000D2D8D5F898309F07F6D41AE7336843F4A1
:103DA00080733360FEF7F4FA07463368DA053FF5AF
:103DB000C7AEFEF7EDFAC01B0228F6D9BCE703F147
:103DC0008043A3F53C331A6842F480221A601A68D3
:103DD00042F480321A6085E701207047FEF7D8FA76
:103DE000064604E0FEF7D4FA801B0228A4D82B680C
:103DF0009901F7D4E9683A4B226A606A374E0B4062
:103E00001343D4E90A1243EA012343EAC263D4E923
:103E10000C120138490843EA00130139520843EAF9
:103E20004153013A43EA4263EB602B6843F08073ED
:103E30002B60EB6843F08073EB60FEF7A9FA044651
:103E400005E0FEF7A5FA001B02283FF675AF3368C0
:103E50009A01F6D5DEE6214BD3F8902042F0040219
:103E6000C3F89020D3F8902042F00102C3F89020CC
:103E70006FE7012B3FF444AFEB68226A03F00301C4
:103E800091427FF43DAF616A03F0F0020139B2EB79
:103E9000011F7FF435AFA16A03F4FE42B2EB012F9C
:103EA0007FF42EAFE16A03F07842B2EBC16F7FF48A
:103EB00027AF226B520803F4C001013AB1EB425F15
:103EC0007FF41EAF626B520803F0C063013AB3EB9C
:103ED000426F14BF012000209DE600BF0010024089
:103EE0000C809F01184B9A6802F00C02042A26D01D
:103EF0009A6802F00C02082A23D09A6802F00C0299
:103F00000C2A01D000207047D968DA68D86801F01F
:103F100003010329C2F30312C0F306200CBF0B4BAD
:103F20000B4B0132B3FBF2F303FB00F0064BDB68F3
:103F3000C3F3416301335B00B0FBF3F07047044807
:103F400070470248704700BF0010024000127A001C
:103F50000024F400002800F0EE80784A2DE9F843B0
:103F6000136803F00F038B420D4604460CD213680E
:103F700023F00F030B431360136803F00F038B420E
:103F800002D00120BDE8F8832368DF0769D56768A0
:103F9000032F00F0A0806A4B022F1B6800F097806F
:103FA0005B05EED5FFF79EFF664B984240F2C0805E
:103FB000634A936823F0F00343F0800393604FF06B
:103FC00080095F4EB36823F003033B43B360FEF701
:103FD000DFF941F28838074604E0FEF7D9F9C01B43
:103FE000404571D8B368626803F00C03B3EB820FED
:103FF000F3D123689F0736D4B9F1000F03D0B3681B
:1040000023F0F003B3604D4E336803F00F03AB426F
:1040100046D823685A0706D54949E0688A6822F4D9
:10402000E06202438A601B0707D5454A216993680D
:1040300023F4605343EAC1039360FFF753FF404A00
:10404000414C92684149C2F303120346A25C4048C6
:1040500002F01F02D3400B600068BDE8F843FEF792
:1040600055B99E07CFD5580704D535498A6842F41B
:10407000E0628A60190706D5314A936823F47C53BD
:1040800043F4E06393602E4AA16893682B4E23F0BB
:10409000F0030B439360336803F00F03AB42B8D9CE
:1040A000336823F00F032B433360FEF771F941F2BD
:1040B00088380746336803F00F03AB42A9D0FEF7F8
:1040C00067F9C01B4045F5D90320BDE8F8839A0382
:1040D0003FF568AF55E71A4A116888017FF551AF7F
:1040E000D068D168D268174E00F003000328C1F3EE
:1040F00003110CBF174818480131B0FBF1F110480B
:10410000C2F3062201FB02F2C168C1F34161013131
:104110004900B2FBF1F2B2420AD9826812F0F00F04
:104120003FF446AF990703D5A368002B3FF440AF97
:104130004FF0000945E70120704700BF0020024012
:104140000010024000B4C404007B00087C00002082
:104150008400002000127A000024F400014B18684B
:10416000704700BF7C0000202DE9F0410368044641
:1041700013F4002082B052D0AC4B9A6DD50040F1C0
:104180003A810027AA4D2B6843F480732B60FEF719
:10419000FFF8064605E0FEF7FBF8831B022B00F252
:1041A00035812B68D805F6D5A04D226DD5F8903015
:1041B00013F4407326D0934224D0D5F89010D5F84C
:1041C000903043F48033C5F89030D5F8903023F424
:1041D0008033C5F8903021F44073C907C5F890309A
:1041E00010D5FEF7D5F841F28838064605E0FEF70F
:1041F000CFF8801B404500F20981D5F890309B072D
:10420000F5D5226D8949D1F8903023F440731343DA
:10421000C1F8903023680020002F40F0FC80DD07BB
:1042200008D582496568D1F8882022F003022A4324
:10423000C1F88820990708D57C49A568D1F888205D
:1042400022F00C022A43C1F888205A0708D5774982
:10425000E568D1F8882022F030022A43C1F888208E
:104260001F0708D571492569D1F8882022F0C002BE
:104270002A43C1F88820DE0608D56C496569D1F863
:10428000882022F440722A43C1F888209D0608D570
:104290006649A569D1F8882022F440622A43C1F812
:1042A0008820590608D56149E569D1F8882022F4AB
:1042B00040522A43C1F888201A0608D55B49256A6E
:1042C000D1F8882022F440422A43C1F88820DF0533
:1042D00008D55649656AD1F8882022F440322A432D
:1042E000C1F888209E0308D55049A56AD1F89C20C2
:1042F00022F003022A43C1F89C209D0508D54B49B2
:10430000E56AD1F8882022F440222A43C1F88820A7
:1043100059050BD54549256BD1F8882022F4401268
:104320002A43B5F5801FC1F888207AD01A050BD52D
:104330003E49656BD1F8882022F440022A43B5F546
:10434000800FC1F8882075D0DF040BD53749A56BE5
:10435000D1F8882022F040722A43B5F1807FC1F85D
:1043600088206CD09E040BD53049E56BD1F88820AD
:1043700022F040622A43B5F1006FC1F8882063D073
:104380005D040BD52949256CD1F8882022F04062C4
:104390002A43B5F1006FC1F888205AD019040BD513
:1043A0002249656CD1F8882022F040522A43B5F1A9
:1043B000805FC1F8882051D0DA030BD51B49A56C6A
:1043C000D1F8882022F040422A43B5F1804FC1F84D
:1043D000882048D05B030BD5144AE16CD2F89C309E
:1043E00023F440130B43B1F5001FC2F89C303FD0BB
:1043F00002B0BDE8F0819A6D42F080529A659B6DE3
:1044000003F080530193019B0127BBE6236803203F
:10441000002F3FF404AF05498A6D22F080528A656F
:10442000FDE6CA6842F48012CA607FE700100240CD
:1044300000700040CA6842F48012CA6084E7CA680B
:1044400042F48012CA608DE7CA6842F48012CA60E2
:1044500096E7CA6842F48012CA609FE7CA6842F4CD
:104460008032CA60A8E7CA6842F48032CA60B1E705
:10447000D36843F48013D36002B0BDE8F08100BF7D
:1044800003464BF680720020A3F84400A3F84020B6
:10449000704700BFB0F84010034644F27F020A4064
:1044A0000020A3F840207047034682B04FF0010C73
:1044B0000020A3F840C00DF1080CA3F840000CE95F
:1044C0000600A3F84400A3F8500002B0704700BFF4
:1044D000002070470020704770B50C7891F803E019
:1044E0000FFA84FC034630F82C2022F4EC4222F030
:1044F00070021204120CBEF1030F00F2EC81DFE82F
:104500000EF06C6F4F0242F4C06248F2800002432A
:1045100023F82C2033F82C2022F4E04222F0700201
:104520001204120C2243104323F82C000A7B002AA9
:1045300062D10020CA884E785208520003EBC405AD
:10454000002E00F02E81B3F8501015FA81F1A1F879
:10455000002433F82C2052060DD533F82C2022F4F9
:10456000E04222F070021204120C42F4004242F0C7
:10457000C00223F82C2033F82C2022F4E04222F051
:1045800040021204BEF1010F4FEA12422DD082F018
:10459000200242F4004242F0800223F82C2070BD39
:1045A00048F28000024323F82C2033F82C20D54D0C
:1045B00092B22A402243104323F82C000A7B002A9F
:1045C000B7D033F82C2092B22A4042F4014242F094
:1045D000800223F82C2000201DE042F4007294E7B2
:1045E00042F4806291E782F4005242F4004242F0C9
:1045F000800223F82C2070BD002033F82C2022F4F8
:10460000E24222F070021204120C42F4004242F024
:10461000800223F82C20B3F850500A8903EBC4041D
:1046200014FA85F552085200A5F80024B3F850504A
:104630004A8914FA85F552085200A5F804244A78EC
:10464000002A68D133F82C2055040DD533F82C20DE
:1046500022F4E04222F070021204120C42F44042B2
:1046600042F0800223F82C2033F82C2052060DD57E
:1046700033F82C2022F4E04222F070021204120CD3
:1046800042F4004242F0C00223F82C20B3F850203C
:104690000D6914FA82F204F20644B2F80214C1F36E
:1046A0000901A2F80214002D00F0CB803E2D00F28B
:1046B000F3806908EE0748BF01318D02B2F8021499
:1046C000ADB289B22943A2F80214B3F8502092B2D5
:1046D000115BC1F309011153115B89B20D431553ED
:1046E00033F82C2022F4804222F070021204120CC3
:1046F00048F2800182F440520A4323F82C2033F818
:104700002C2022F4E04222F040021204120C114349
:1047100023F82C1070BD33F82C2051040DD533F83C
:104720002C2022F4E04222F070021204120C42F417
:10473000404242F0800223F82C2033F82C2052060D
:104740000DD533F82C2022F4E04222F0700212043E
:10475000120C42F4004242F0C00223F82C2033F83D
:104760002C2022F4E04222F040021204120CBEF18E
:10477000010F18BF82F0200242F4004242F0800292
:1047800023F82C2033F82C2022F4804222F07002EF
:104790001204120C42F4004242F0800223F82C2052
:1047A00070BD0E69B3F8501015FA81F1A1F8042418
:1047B000B3F8502015FA82F2B2F80614C1F30901D9
:1047C000A2F806149EB33E2E53D8B2F8061475080C
:1047D000F60748BF013589B241EA852189B2A2F8BE
:1047E000061433F82C2056040DD533F82C2022F46F
:1047F000E04222F070021204120C42F4404242F0F5
:10480000800223F82C2033F82C2022F4804222F05E
:1048100070021204120C002C7FF4E5AE82F44052B8
:1048200042F4004242F0800223F82C2070BDB2F81E
:1048300006146FEA41416FEA514189B2A2F80614A9
:10484000CFE7B2F802146FEA41416FEA514189B2F1
:10485000A2F80214B3F8501089B20A5BC2F309023D
:104860000A530A5B6FEA42426FEA524292B20A531B
:1048700036E7F106B2F806144FEA561508BF05F1FF
:10488000FF3589B241EA85216FEA41416FEA514122
:1048900089B2A2F80614A4E76909ED0608BF01F180
:1048A000FF31B2F80254890289B2ADB20D4345F42A
:1048B0000045A2F80254B3F85050ADB22A5BC2F3DF
:1048C00009022A532A5B0A436FEA42426FEA5242C4
:1048D00092B22A5304E748F28000024323F82C20C6
:1048E00033F82C2022F4E04222F070021204120C61
:1048F0002243104323F82C000A7B0120002A7FF476
:104900007CAE17E68F8FFFFF10B40C7B4A780B78D4
:10491000CCB9002A00F0B58030F82320540600F10D
:10492000C98030F8232022F4E04222F04002120431
:10493000120C42F4004242F0800220F823205DF87D
:10494000044B00207047002A4DD130F82320520438
:104950000DD530F8232022F4E04222F07002120438
:10496000120C42F4404242F0800220F8232030F83A
:10497000232054060DD530F8232022F4E04222F003
:1049800070021204120C42F4004242F0C00220F8FD
:10499000232030F823205DF8044B22F4E04222F07B
:1049A00070021204120C42F4004242F0C00220F8DD
:1049B000232030F8232022F4804222F070021204D7
:1049C00048F28001120C0A4320F8232030F82320FB
:1049D00022F4E04222F040021204120C114320F8AB
:1049E00023100020704730F8232051040DD530F8F3
:1049F000232022F4E04222F070021204120C42F44E
:104A0000404242F0800220F8232030F82320520652
:104A10000DD530F8232022F4E04222F07002120477
:104A2000120C42F4004242F0C00220F8232030F879
:104A300023205DF8044B22F4E04222F070021204BD
:104A4000120C42F4404242F0800220F8232030F859
:104A5000232022F4E04222F04002120448F28001B6
:104A6000120C0A4320F8232030F8232022F480423D
:104A700022F070021204120C114320F823100020BF
:104A8000704730F8232051040DD530F8232022F44C
:104A9000E04222F070021204120C42F4404242F052
:104AA000800220F8232030F8232022F4804222F0D4
:104AB00070023CE730F8232022F4E04222F070023A
:104AC0001204120C42F4004242F0C00220F82320EB
:104AD00027E700BF2DE9F04F4B780C7B012B83B00B
:104AE00036D0F4B1CB78022B00F0FD80012B40F0E2
:104AF000868000230A788B6112B230F8223023F4CA
:104B0000804323F070031B041B0C83F4405343F4D5
:104B1000004343F0800320F82230002003B0BDE8BA
:104B2000F08F8A690C78002A55D1CB78002B00F0E1
:104B3000FB8030F8243023F4E24323F070031B049D
:104B40001B0C43F4004343F0800320F82430D0E7EB
:104B50000E698A694B69B24228BF324600F5806708
:104B6000002C00F0A680CD780C6A91F800E0022DB0
:104B700049D0A41A30F82E500C6294B2013415F0CA
:104B8000400F92B2B0F850504FEA540400F0DB806E
:104B900000F2064616FA85F525F83E204D893D447B
:104BA0003CB103EB4404ED1A1A885A5302339C4279
:104BB000FAD10A7830F8223023F4E04323F040039E
:104BC0001B041B0C83F0300343F4004343F08003C9
:104BD00020F82230A1E730F8243023F4E24323F018
:104BE00070031B041B0C43F4004343F0800320F8C4
:104BF00024300B699A427FF67CAFD31A7AE7012002
:104C000003B0BDE8F08FA64200F2024B80F0E080D6
:104C100030F82E5025F4E04525F070052D042D0CBC
:104C200045F4014545F0800520F82E5030F82EC09F
:104C300095B2A41A01351CF0400F0C62B0F850C0B8
:104C40004FEA55051FFA82F800F2064900F08F80FE
:104C500019FA8CFC2CF83E80B1F80A90B94475B171
:104C6000A9EB030903EB450A9C460196BCF80060DA
:104C70002CF809600CF1020CD445F7D1019E1344C5
:104C8000A6424B6180F0C980A21A0A62B0F8502097
:104C90001BFA82F222F83E800C893C44002D88D019
:104CA00003EB4505E41A1A881A530233AB42FAD1D2
:104CB0007FE795B2CE8801356D083E4492B207D0A9
:104CC00003EB4505F61A1C889C530233AB42FAD11C
:104CD000B0F850300C7800F2024515FA83F303EB7C
:104CE000C4031A8065E7CB690A78002B3FF404AF50
:104CF00014B244F2400330F8245003EA0506AB43F3
:104D000002D0002E7FF4F8AE30F8243023F4E043D4
:104D100023F070031B041B0C43F4004343F0C00357
:104D200020F824300A78E7E630F8243023F4E04312
:104D300023F070031B041B0C43F4014343F0800376
:104D400020F82430D5E600F2024616FA85F525F85B
:104D50003E200D893D44002C3FF42BAF03EB44046F
:104D6000ED1A1A885A5302339C42FAD121E71BFAF2
:104D70008CFC2CF83E80B1F808A0BA4475B1AAEBBF
:104D8000030A03EB450B9C460196BCF800602CF827
:104D90000A600CF1020CE345F7D1019E1344A642D0
:104DA0004B6141D2A41AB0F850200C6219FA82F279
:104DB00022F83E804C893C44002D3FF4FAAE03EBD0
:104DC0004505E41A1A881A5302339D42FAD1F0E6D7
:104DD00030F82E2022F4E24222F070021204120C6B
:104DE00042F4004242F0800220F82E20B0F8502019
:104DF0001BFA82F2A5B222F83E502C4601340D89EE
:104E000064083D443FF4D5AE03EB4402ED1A1C8820
:104E10005C5302339A42FAD1CBE6A5B201351FFAB0
:104E200084F86D08002230E7A5B201351FFA84F836
:104E30006D080024B7E700BF4B780A788BB130F8D3
:104E4000223023F4E04323F040031B041B0C83F0C7
:104E5000100343F4004343F0800320F82230002085
:104E6000704730F8223023F4804323F070031B0492
:104E70001B0C83F4805343F4004343F0800320F879
:104E800022300020704700BF4B780A7833B330F8E7
:104E900022305B060DD530F8223023F4E04323F0B6
:104EA00070031B041B0C43F4004343F0C00320F8C1
:104EB0002230CB78012B0FD030F8223023F4E0439E
:104EC00023F040031B041B0C83F0200343F4004336
:104ED00043F0800320F822300020704730F8223061
:104EE0005B040DD530F8223023F4E04323F0700347
:104EF0001B041B0C43F4404343F0800320F8223092
:104F000030F8223023F4804323F070031B041B0C81
:104F100083F4405343F4004343F0800320F82230ED
:104F20000020704711B98023A0F84C300020704752
:104F300002460020B2F858306FEA43436FEA534309
:104F40009BB2A2F858307047B0F8440080B2704766
:104F5000013302F580625B08104408D00A46801ACB
:104F600001EB43011388135202329142FAD1704788
:104F700070B502F580625E0800EB02051CD06FF090
:104F80000104641A8A1C2C44B64634F802C002326A
:104F90001FFA8CFC4FEA1C20BEF1010E02F804CC73
:104FA00002F8030CF1D105EB4602DB0701EB4601E9
:104FB00044BF13880B7070BD2A46DB0744BF1388BB
:104FC0000B7070BD10B5D0F8BC4284B1D0F8C032BF
:104FD0005BB194F80002FF2807D09B6894F8012287
:104FE00021469847FF2384F80032002010BD03209B
:104FF00010BD00BF4323038000487047CC00002051
:10500000432303800048704710010020432303809E
:1050100000487047880000200A230380004870473A
:105020008C01002038B5D0F8BC527DB10446FDF7A4
:1050300059F9D4F8C0320246DB68D5F80402C5F845
:105040000C2205F503719847002038BD032038BDB8
:1050500070B5D0F8BC52D0F8C4421DB301EB810E3C
:1050600000EB8E068446B3690A466BB9DCF8C032A1
:105070001B690021C5F8141223B1D5F8080205F503
:1050800004719847002070BD04EBCE04246AB3FB82
:10509000F4FE04FB1E33002BE8D1B3611A46FDF782
:1050A00009F9EFE7032070BD70B5D0F8BC5282B0AB
:1050B00000238DF80530ADF806305DB10B7813F0A4
:1050C000600206460C461DD0202A06D021463046F6
:1050D00000F0EAFC032002B070BDCA8891F801C05C
:1050E00072B31B064CD5D6F8C03229469B68604681
:1050F0009847E288072A294628BF0722304600F051
:1051000007FD22E04B780B2BE0D801A252F823F0E8
:10511000595100084B510008CD500008CD500008EF
:10512000CD500008CD500008CD500008CD500008EB
:10513000CD500008CD5000086D5100084F510008B7
:10514000D0F8C03260469B6898470020C3E790F8CB
:105150009C32032BF9D0B9E790F89C32032BB5D1E0
:1051600002220DF1060100F0D3FCEEE790F89C322C
:10517000032BABD101220DF1050100F0C9FCE4E7DE
:1051800085F800C285F80122294600F0D7FCDCE74B
:1051900038B5044600258121FDF73CF8012125871B
:1051A0002046FDF737F8A4F8785182212046FDF714
:1051B00031F8D4F8BC32E5644BB1D4F8C0325B6846
:1051C0009847D4F8BC02FDF795F8C4F8BC5200200B
:1051D00038BD00BF70B504464FF40770FDF786F880
:1051E0000546002849D0237CC4F8BC027BB3402389
:1051F000022281212046FCF7FFFF01212187402365
:1052000002222046FCF7F8FF012610220823A4F80A
:105210004E2082210322A4F878612046FCF7ECFF9F
:10522000D4F8C032A4F84C601B6898470023C5F836
:105230001432C5F81832237CD5F80422BBB94FF4D8
:10524000007331462046FDF741F8002070BD4FF451
:105250000073022281212046FCF7CEFF0121218725
:105260004FF4007302222046FCF7C6FFCCE7402330
:1052700031462046FDF72AF8E7E7C4F8BC020220D1
:1052800070BD00BF19B1C0F8C012002070470320E4
:10529000704700BFD0F8BC322BB1C3F80812C3F876
:1052A0001022002070470320704700BFD0F8BC32A6
:1052B0001BB1C3F80412002070470320704700BFE1
:1052C000D0F8BC2292B110B5D2F814420CB1012032
:1052D00010BD0123C2F81432D2F81032D2F80822DD
:1052E000C3628121FCF7E6FF204610BD0320704712
:1052F000D0F8BC228AB108B5037CD2F804222BB1C5
:1053000040230121FCF7E2FF002008BD4FF40073A9
:105310000121FCF7DBFF002008BD0320704700BF20
:1053200078B10023C0F8B832C0F8C032C0F8CC322F
:1053300009B1C0F8B412012380F89C320270FCF766
:105340000BBF0320704700BF10B582B00023ADF83B
:10535000063061B1CB6AC0F8B812044623B10DF132
:1053600006009847C4F8CC02002002B010BD03200C
:1053700002B010BDFCF734BFD0F8B8320BB11B68D7
:1053800018470320704700BF08B5D0F8B8320BB1FA
:105390005B689847002008BD38B5044600F2AA258E
:1053A000284600F075FB94F8AA12B4F8B022C4F8AD
:1053B00098220123C4F8943201F01F03012B09D075
:1053C000022B13D063B1204601F08001BDE83840C4
:1053D000FCF738BF29462046BDE8384000F08ABABD
:1053E00029462046BDE8384000F0EAB82946204664
:1053F000BDE8384000F0B2BA10B5044631B91346E2
:10540000D0F89422032A0DD0002010BD90F89C32D1
:10541000032BF9D1D0F8B8329B69002BF4D0BDE84A
:1054200010401847D0E95712914208D890F89C32A2
:10543000032B0ED0204600F097FB002010BD891AE8
:105440008A4228BF0A46C0F85C11194600F084FB66
:10545000DAE7D0F8B8321B69002BEBD09847E9E7C0
:1054600070B5044651B91346D0F89422022A11D0DF
:1054700094F8A032012B22D0002070BD90F89C320D
:10548000032BF9D1D0F8B8325B69002BF4D0BDE81A
:1054900070401847D0E90726B2420D4614D81FD0F5
:1054A00094F89C32032B28D080212046FCF7CAFEBA
:1054B000204600F065FB94F8A032012BDCD10023DC
:1054C00084F8A032002070BD921BC261194600F022
:1054D0002DFB2B462A4629462046FCF7F7FEC7E758
:1054E00083699A42DCD8D0F898229342D8D20A46EF
:1054F00000F01CFBC4F89852EBE7D4F8B832DB6834
:10550000002BD1D020469847CEE700BFD0F8B83264
:105510000021012280F89C224160C0F89412C0F85A
:10552000A412EBB1D0F8BC2270B5044612B15B688E
:1055300003B198474025002211462B4601262046FC
:10554000FCF75AFEA4F86461C4F860512B460022AF
:1055500080212046FCF750FEA6842562002070BD05
:105560000320704701740020704700BF90F89C2210
:1055700003460421D2B283F89D22002083F89C12B6
:10558000704700BF90F89C32042B04D190F89D32F4
:10559000DBB280F89C320020704700BFD0F8B82200
:1055A00062B108B590F89C32032B01D0002008BDF1
:1055B000D369002BFAD09847002008BD032070471C
:1055C00030B50B7803F06003202B83B00D46044602
:1055D0000ED0402B0CD0A3B180212046FCF732FE28
:1055E00000212046FCF72EFE0025284603B030BDE2
:1055F000D4F8B8329B682946204603B0BDE8304055
:1056000018474B78092BE7D801A252F823F000BFC6
:105610007156000899560008D9550008B756000879
:10562000D9550008BF560008F9560008D95500089A
:105630002D570008395600088978AD4D0129297089
:1056400000F2328190F89C32022BDAB200F01A811B
:10565000032A00F0F5808021FCF7F4FD00212046AC
:10566000FCF7F0FD29782046FFF78EFE0325BCE706
:1056700090F89C32013B022BAED8CA88022AABD1EB
:10568000D0F8A4320146002B0CBF0123032341F8BC
:105690000C3F00F03DFAA7E790F89C32013B022B4B
:1056A0009AD84B88012B9FD10023C4F8A4322046FE
:1056B00000F05AFA98E74B88012B95D1F5E78B88D3
:1056C000002B89D1CB88002B86D14D887F2D83D8A4
:1056D00090F89C32032B3FF47FAFE9B280F89E1222
:1056E000FCF7DCFD204600F03FFA002D00F0FC80C6
:1056F000022384F89C3277E74A88130A0021013B91
:10570000ADF80610062B3FF667AF01A151F823F064
:10571000D1570008B7570008A5570008D955000809
:10572000D95500088F57000853570008CA88012A26
:105730007FF452AF90F89C120229CBB279D8002B9B
:105740003FF44AAF0146002341F8083F00F0E0F97A
:105750004AE7037C002B7FF43FAFD0F8B8320DF15D
:1057600006001B6B984707234370EB88002B9ED0E5
:10577000BDF80620002A3FF42FAF9A4228BF1A46F0
:1057800001462046ADF8062000F0C2F92CE7037C64
:10579000002B7FF421AFD0F8B8320DF106005B6B1F
:1057A0009847E2E7D2B2052A3FF616AFDFE802F0EB
:1057B0003B352F292318027CD0F8B832002A40F05C
:1057C00085809B6A0DF10600984702234370CCE761
:1057D000D0F8B432007C1B680DF106019847C4E78D
:1057E000D0F8B4329B69002B3FF4F6AE207C0DF16B
:1057F00006019847B9E7D0F8B4325B69002BF5D1C0
:10580000EAE6D0F8B4321B69002BEFD1E4E6D0F819
:10581000B432DB68002BE9D1DEE6D0F8B4329B6805
:10582000002BE3D1D8E6D0F8B4325B68002BDDD191
:10583000D2E6032B7FF4D0AE011D00F069F9D3E668
:10584000002939D0416801293FF431AFC9B2FFF7CF
:105850009BFD297861602046FFF78EFD05460028F4
:105860003FF425AF80212046FCF7ECFC00212046C8
:10587000FCF7E8FC21792046FFF786FD022384F837
:105880009C32B2E600293FF412AF01214160FFF7DC
:1058900073FD054608B380212046FCF7D3FC0021A8
:1058A0002046FCF7CFFCA0E68021FCF7CBFC0021D2
:1058B0002046FCF7C7FCD9E6022380F89C32416001
:1058C000FFF762FD204600F04FF98DE6DB6A0DF12F
:1058D000060098470223437047E7204600F044F94A
:1058E000032384F89C327FE6012384F89C327BE614
:1058F0005045012038B50B785A060D4604460CD5A4
:1059000003F06002402A08D08021FCF79BFC0021B4
:105910002046FCF797FC002038BD94F89C32013BF0
:10592000022B11D82B79012B0ED8D4F8B832294686
:105930009B6820469847EA88002AEDD10028EBD1E1
:10594000204600F011F9E6E780212046FCF77AFCBA
:1059500000212046FCF776FCDDE700BF70B50B7830
:105960008A8803F06003202B0C4605461BD0402B91
:1059700019D003B380212846FCF764FC0021284697
:10598000FCF760FC002070BD90F89C32022BDAB26C
:1059900053D0032AEED16388002BF3D14E0671D188
:1059A000284600F0E1F8D5F8B832214628469B6831
:1059B000BDE8704018476378012BD1B2E4D0032BC7
:1059C0002AD0002BD6D190F89C32022BD8B23DD0F1
:1059D0000328CFD101F00F0303EB8303120605EB7D
:1059E000830342D4B3F86431002BC3D001F07F03AA
:1059F000142404FB035404F5AA74002B40D0284659
:105A0000FCF738FC00283BD001232360022221460A
:105A1000284600F07DF8B5E790F89C32022BDAB208
:105A20000BD0032AA6D163881BB94A0601D0E388AC
:105A30005BB3284600F098F8A4E74B069AD0FCF731
:105A400001FC80212846FCF7FDFB9BE7480691D12D
:105A500011064CBF05F1140105F5AA7100230B6076
:105A60000222284600F054F88CE79B8C002B81D052
:105A700001F07F035C1C04EB840405EB8404BCE7A9
:105A80000023C2E7FCF7EAFB8AE7FCF7DBFBD0E781
:105A90000B7803704B7843704B8843808B888380EE
:105AA000CB88C380704700BF10B580210446FCF747
:105AB000C9FB20460021BDE81040FCF7C3BB00BF76
:105AC00008B370B503780E4614460546E3B10130BD
:105AD000FAF7B0FB431CDBB201335B00DAB2238080
